:020000004A2A8A
:0E000600F201F101F001F801F30100300800F1
:100014007B15FB1F14280130F300F201F101F001FC
:08002400FA0DF20CFF30080098
:08002C00FA1FF2130030080076
:10003400A0017208031D2F287108F2007008F10056
:10004400F001A0157208031D2F287108F200F101B8
:10005400A0112016720803193D282008F302031D7D
:10006400031C41280310F21B4528F00DF10DF20D7D
:10007400F30B352841280130FC00032048280230C6
:0E008400FC000A2048280430FC00162008006A
:100092007B14FB1F5428F201FA1FFF30F200F1001B
:0A00A200F000FA0DF20CFF30080028
:1000AC0083120313FB01FA01F9018030F800F10C03
:1000BC00F00C031C6A287408F90775080318750FEF
:1000CC00FA070318FB0A0310F01F72287408FA07CA
:1000DC0075080318750FFB07FB0CFA0CF90CF80CE0
:1000EC00031C5D287B08F3007A08F2007908F10004
:0600FC007808F000080086
:0E0102008312031323088A00220882000800DB
:10011000FB14FB1F9228FF30F300F200F100F00007
:08012000FA0DF20CFF3008009B
:10012800243083120313FD00FD0B982800000800FB
:1001380083120313FB017308031D77080319F328BF
:1001480072087606FA007708F3077E30031CB02899
:10015800F3020318F628B328F302031CF9287208DF
:10016800F8007108FC007008FD00F817F617031076
:10017800F201F101F0011830A0007D1CCD287408AF
:10018800F00775080318750FF10776080318760F3E
:10019800F207F20CF10CF00CF80CFC0CFD0C03103F
:1001A800A00BC128F21BDD28F80DF00DF10DF20DA2
:1001B800F3037B1B701CEF28F81FEF28F00A0319C4
:1001C800F10A0319F20A031DEF28F20CF10CF00CE6
:1001D800F30A0319F628FA1FF2130030FB2801303E
:1001E8000320FB2802308820FB2804300A20000066
:0201F8000800FD
:1001FA00831603131208013EF000F1010318F10AF5
:10020A0083122808F400F50156200630F20070081F
:10021A00F4007108F500720803191829F50CF40C9A
:10022A00F513FF3E11290430F1007408F00071083B
:10023A0003192329F00D7010FF3E1D293030700577
:10024A00F3007408F0007508F100F10CF00CF113DA
:10025A00F10CF00CF113700895000F309705730834
:04026A0097040800ED
:0C026E00831203139B011D129D12080057
:10027A0083120313FB01730803197A297208FA001F
:10028A00F2178E30F302F31F7D29F309F30A0830BF
:10029A007302031C6029F300F10D7208F100F201E8
:1002AA0008307302031C6029F300F10DF101730891
:1002BA00031D031068297308031968290310F20C37
:1002CA00F10CF30B63297B1B711C7229031C722925
:1002DA00F10A0319F20AF21B8929FA1F8C29F20979
:1002EA00F109F10A0319F20A8C29F201F1018C29A8
:1002FA007B14FB1F8F29F201FA1F8F29FF30F200AE
:10030A00F100FA0DF20C8F290130FC00912900301E
:10031A00FC009129FF30FC00FC08031995294920AB
:0A032A007108F0007208F1000800ED
:10033400831203139F01C0309F042109F000700849
:1003440083169F051F179F1783122808F000F00DCE
:100354007010F00D7010F00D701070089F041F14D1
:1003640094201F151F1DB8290000B4291F101E0852
:10037400F100F00183161E08F0040030F1040800B7
:10038400831203137008F8007108F000F101F20100
:10039400F301FB01FC019630F300FA017008F1004F
:0C03A4007808F000F801F2011A200800AF
:1003B000831603130711831212150C3097040800DB
:1003C000831603131208013EF000F1010318F10A2D
:1003D00083122808F400F50156200630F200700858
:1003E000F4007108F50072080319FB29F50CF40CF0
:1003F000F513FF3EF4290430F1007408F000710891
:100400000319062AF00D7010FF3E002A30307005E7
:10041000F3007408F0007508F100F10CF00CF11312
:10042000F10CF00CF11370089B000F309D05730860
:040430009D0408001F
:1004340081208A110A128000840AA20A0319A30ADD
:08044400F003031D1A2A080051
:0C044C0083120313950117129712080089
:10045800FF3083120313A500FF30A600FF30A7006A
:10046800FF309F01C0309F042109F00070088316F7
:0C0478009F051F179F1783121F14080018
:10048400831603138710831212150C309D04080081
:10049400C222831603139F01870183121214921040
:1004A400F93083169200262212149210F930831622
:1004B400920037212C22D8214222A8019A21C2215C
:1004C400D030F4003F30F5007F30F6007C30F70088
:1004D4009C203D217008A4007008A800FD20240879
:1004E400A800E021871107120430FB00CF30FC0084
:1004F4000130FD00FD0B7C2AFC0B7C2AFB0B7C2AC3
:1005040000000000871107160430FB00CF30FC0008
:100514000130FD00FD0B8C2AFC0B8C2AFB0B8C2A72
:1005240000000000871507120430FB00CF30FC00E8
:100534000130FD00FD0B9C2AFC0B9C2AFB0B9C2A22
:1005440000000000871507160430FB00CF30FC00C4
:100554000130FD00FD0BAC2AFC0BAC2AFB0BAC2AD2
:10056400000000005F2AFD0BB52AFC0BB52AFB0B2B
:04057400B52ABB2ABF
:1005840021308400013083120313F000C130A20033
:080594000230A3001A22080046
:020582000F3434
:02400E004A2F37
:00000001FF
